:020000040800F2
:10000000C007002099010008F718000849180008E7
:10001000F5180008390B00087D1B000800000000DF
:10002000000000000000000000000000FB180008B5
:100030003B0B000800000000F9180008FD1800083C
:10004000B3010008B3010008B3010008B3010008C0
:10005000B3010008B3010008B3010008B3010008B0
:10006000B3010008B3010008B3010008B3010008A0
:10007000B3010008B3010008B3010008B301000890
:10008000B3010008B3010008B3010008B301000880
:10009000B3010008B3010008B3010008B301000870
:1000A000B3010008B3010008B3010008B301000860
:1000B000B3010008B3010008B3010008B301000850
:1000C000B3010008B3010008B3010008B301000840
:1000D000B3010008711B0008B3010008B301000858
:1000E000B3010008B3010008B301000800F002F8F2
:1000F00000F042F80AA090E8000C82448344AAF180
:100100000107DA4501D100F037F8AFF2090EBAE87D
:100110000F0013F0010F18BFFB1A43F0010318473B
:10012000081B0000281B0000103A24BF78C878C1C3
:10013000FAD8520724BF30C830C144BF04680C60ED
:10014000704700000023002400250026103A28BF35
:1001500078C1FBD8520728BF30C148BF0B60704739
:100160001FB59DE8030000F0B9FA00F099F81FBD33
:1001700010B500F0FEF810BD00F061F91146FFF770
:10018000EFFF01F019FD00F079FA03B4FFF7F0FF7B
:1001900003BC00F035FC00000948804709480047CF
:1001A000FEE7FEE7FEE7FEE7FEE7FEE7FEE7FEE727
:1001B000FEE7FEE704480549054A064B7047000084
:1001C0005D190008ED000008C0010020C0070020F4
:1001D000C0030020C00300200FB4044910B503AAD7
:1001E000029800F02FF810BC5DF814FBB40000205A
:1001F0004FF0000200B5134694469646203922BFC0
:10020000A0E80C50A0E80C50B1F12001BFF4F7AF0A
:10021000090728BFA0E80C5048BF0CC05DF804EBEC
:10022000890028BF40F8042B08BF704748BF20F85A
:10023000022B11F0804F18BF00F8012B7047704758
:1002400070477047074B70B50D467B4400F011F8BE
:100250000446284600F020F810B14FF0FF3070BD82
:10026000204670BD5319000001694A1C02610878DC
:10027000704700B58FB0CDE90131002105910549E6
:100280007944CDE903101146684600F024F90FB017
:1002900000BD0000E5FFFFFF007B00F0800070471D
:1002A00010B542485421FFF7A3FF41485421FFF7FE
:1002B0009FFF40485421FFF79BFF3F493B483C4A82
:1002C0003F4B08603D490A603A491960531C036579
:1002D000481C1065012008653B48344A39A1784420
:1002E00000F030F920B9384878440A3800F0CCF9E9
:1002F00037482F4A35A1784400F024F920B9344812
:1003000078440A3800F0C0F932482A4A2FA17844CC
:1003100000F018F920B92F4878440A3800F0B4F9F1
:1003200040232248DC000021224600F0E8F820B1FA
:1003300025487844543800F0A7F91D482246402348
:10034000002100F0DCF820B121487844543800F056
:100350009BF9184822461023002100F0D0F800280D
:1003600006D01C487844BDE81040563800F08CB9DF
:1003700010BD104870B5006D20F001040B4800F06E
:1003800057F90B4800F054F90A4800F051F909E018
:10039000206D20F00105204600F04AF9204600F0CB
:1003A00073F82C46002CF3D170BD000060000020D3
:1003B000B4000020080100201000002014000020DC
:1003C00018000020720000003A19000077000000B9
:1003D00026190000121900000EB5CDE9000100F049
:1003E000EFFA029069460120ABBE0EBD08B5694622
:1003F00000900220ABBE08BD1FB58DE8070069461E
:100400000520ABBE04B010BD1FB58DE80F006946D6
:100410000620ABBEF6E708B5694600900920ABBEE2
:1004200008BD1CB5CDE9000169460A20ABBE1CBD64
:10043000704708B5694600900C20ABBE08BD7546F4
:1004400000F02AF9AE4605006946534620F0070041
:10045000854618B020B5FFF7ADFEBDE820404FF04F
:1004600000064FF000074FF000084FF0000B21F09E
:100470000701AC46ACE8C009ACE8C009ACE8C0096B
:10048000ACE8C0098D46704770B50446051F00F002
:1004900009F90068002C14BF446870BD002C18BF17
:1004A000AC423CBF20466468F8D301680A18AA42EF
:1004B00018BF456003D12A680546114401602868C9
:1004C0004119A1421CBF6C6070BD61686960216800
:1004D0000844286070BD2DE9F04106460024D6E9A5
:1004E0000170F5688046304603E04146B847641C19
:1004F0003046A8470028F8D12046BDE8F08170B505
:10050000C468A50713D0650211D4B2F5807F09D065
:10051000B2F5007F06D0B2F5806F08D1012300F15B
:10052000240106E05D1E6FF07F46B54201D3012035
:1005300070BD0161C361416024F470611143C16009
:10054000002070BD2DE9F0410C46074616461046C6
:1005500000F06EF82078611C61280AD0722802D061
:1005600077283CD102E00125002405E0022504247F
:1005700002E0082448F2020511F8010B2B2806D0EE
:10058000622809D011F8010C74280AD00BE045F05C
:10059000030544F00204EFE745F0040544F00104CC
:1005A000EAE744F0100438462146FFF715FF411CE6
:1005B00015D00021316171604FF40071F560F16177
:1005C0007061200704D530460222002100F0E4F8D3
:1005D000306D40F0010030653046BDE8F08100200C
:1005E000FBE72DE9F0410D460646104C206DC10792
:1005F00004D0410804D020F00104F7E722460EE0C1
:10060000542000F09AF807000ED0206D47F0010149
:100610000843542120653846FFF7EAFD3A4629464B
:100620003046BDE8F0418DE70020D6E760000020AD
:100630002DE9F04704464FF000094FF0FF37C56839
:10064000D4E90486A80707D0204600F055F93046C3
:10065000FFF7CCFE002802DA3846BDE8F08728050F
:1006600002D54046FFF710FF4C212046FFF7C0FDA2
:10067000206D20F0010020654846EEE70446AFF308
:1006800000802046FFF781FD10B500F07FF9BDE83E
:10069000104000F075B90000004870475C01002070
:1006A00070470000004870476401002070477047A1
:1006B0007047704738B504460A4600206946AFF3D4
:1006C0000080002808BF38BD02460099204600F08F
:1006D000A4F9012038BD012000F0F3B9F8B5AFF35B
:1006E0000080054600200C46102000BF0646A819D1
:1006F000A0420DD9324669460020AFF300800700C2
:1007000008BF00F0DEF90098A04218BF0546C419E2
:10071000FFF7C8FF05600746F01D20F007004619E7
:10072000284600F073F9B44208BFF8BDA21B314659
:100730003868BDE8F84000F070B970B50646FFF7BC
:10074000B1FF056806F10B0020F00704B4429CBF1E
:10075000002070BD2B466A68BAB11068A04210D361
:1007600004F1080188423CBF5068586007D35168C3
:10077000101941601168091B016058601460101D58
:1007800070BD13465268002AE7D121462846FFF77C
:1007900091FF0028DED170BD2DE9F04104461646D8
:1007A0000D464769007B80072ED03846FFF733FEA1
:1007B00050BB3EB3012E02D0022E25D104E02046CC
:1007C00000F045F905441DE03846FFF732FEE168C8
:1007D000002841F01001E16005DA204600F058F8E9
:1007E0000120BDE8F081C9030BD56268E16A91423E
:1007F00000D81146A26911442269891A814200DD9C
:1008000008460544002D01DA0220EAE7E16A606843
:10081000E268814206D29103E06203D522F40031FE
:1008200041F01002A6690027AE4213DCE16A814262
:1008300001D90B4600E0034603EB060C2369ACEB41
:10084000030CAC4506DD814201D98C4600E08446AC
:100850009C4505D1A760276042F02000A5620DE00D
:10086000AD1BE669AE1B8142A66000D90846C01ADE
:10087000281A20605819606022F0200003490840BF
:10088000E060002084F84870ABE70000BFCFD7FFDE
:10089000C16821F4001141F08001C1600021816034
:1008A000016070472DE9F047814614460E464FF02F
:1008B000FF383248D5685769054209D03846A169E2
:1008C000FFF7AFFD002811DB2C48C0430540E56071
:1008D0002B46324649463846FFF78EFDA16920F087
:1008E0000042B21A11440028A16103D02046FFF74C
:1008F000CFFF4046BDE8F08770B504460569C06A81
:100900006168884200D80846E16821F42011E1605E
:10091000C90312D5A84208D02246411B2846FFF73A
:10092000C1FF10B14FF0FF3070BD0020E562C4E997
:100930000150E06820F48030E060002070BD10B508
:100940000446C06820F02000E060A16AA0698842E7
:100950000DD02046FFF7D0FFE06820F4405040F073
:100960001000E060A06AA0612069E062606044F26B
:100970004001E0688843E06010BD00001000020004
:10098000002801D000F03CB87047000010B50146C7
:1009900002A000F07DF8012010BD0000534947522D
:1009A000545245443A2052656469726563743A2032
:1009B00063616E2774206F70656E3A20000000003E
:1009C00010B5431C02E010F8011B71B18107FAD188
:1009D0004FF0013202C88C1A8C4314EAC211F9D0CC
:1009E000C01A0A0603D0C01E10BDC01A10BD0A04EA
:1009F00001D0801E10BD0902FCD0401E10BD0000B9
:100A000001491820ABBEFEE726000200002101606C
:100A1000C0E90110704710207047034640688C46BB
:100A2000002818BF88423CBF03464068F8D31868C6
:100A30001844884207D00CF1030020F00700001D85
:100A4000411A521A0146081D0A60FFF71DBD10B574
:100A50000146C268900703D0900607D5886A0AE06D
:100A600000F03EF801210160881E10BD8B694868C6
:100A700018440B69C01A91F848301BB191F849101D
:100A8000401A10BD1103FCD50028FADD401E10BD30
:100A900070B505460C460A2000E06D1C00F018F801
:100AA00035B128780028F8D102E0641C00F010F875
:100AB00014B120780028F8D1BDE870400A2000F079
:100AC00007B810B500F010F8BDE81040FFF758BFA8
:100AD00008B569468DF800000320ABBE08BD0000D4
:100AE000004870475C01002010B5012805D00021A6
:100AF00003A0FFF7CDFF012010BD09A1F8E700001A
:100B000053494752544D454D3A204F7574206F66F6
:100B10002068656170206D656D6F7279000000005E
:100B20003A2048656170206D656D6F727920636F42
:100B30007272757074656400FEE7704772B6FEE706
:100B400010B590F821100022022905D004218163FC
:100B500080F82020012010BD01680B6823F00E03EF
:100B60000B6001680B6823F001030B6090F84030C4
:100B7000C46B012101FA03F3636080F8211080F84F
:100B80002020104610BD000010B590F82110002460
:100B9000022903D00421816301243DE001680A6831
:100BA00022F00E020A6001680A6822F001020A605F
:100BB0001A4A0168914201D1012121E0174A1432F9
:100BC000914201D110211BE0144A2832914201D1F7
:100BD000891515E0114A3C32914201D189140FE088
:100BE0000E4A5032914202D14FF4803108E00B4A54
:100BF0006432914202D14FF4801101E04FF08071D4
:100C0000064A083A5160012180F82110002180F83D
:100C10002010416B01B18847204610BD08000240FA
:100C200070B5044600F004F90546601C02D0044883
:100C30000078044400F0FCF8401BA042FAD370BDD9
:100C4000000000202DE9F84FDFF8B891002409F1E9
:100C5000040A0AF1040B23460F270BF1040EC9E026
:100C60000125A5402A40AA427DD1674ED1F804C093
:100C7000ACEB0608B44532D014DCBCF1030F3AD01B
:100C800009DCBCF1000F2AD0BCF1010F1CD0BCF173
:100C9000020F31D11DE0BCF1110F17D0BCF1120FC2
:100CA0002AD119E0B8F5881F19D006DCB8F5803FC5
:100CB00015D0B8F5801F1FD111E0B8F5001F0ED078
:100CC000B8F5041F18D10AE0CB6815E0CB681B1DEE
:100CD00012E0CB6808330FE0CB680C330CE08B6874
:100CE0002BB1012B4FF0080303D0456104E004232E
:100CF00002E0056100E00023FF2A01D8064601E07A
:100D000000F104064FEA840501D9A5F12005D6F8C3
:100D1000008007FA05FC28EA0C0803FA05F548EA02
:100D20000508C6F800804D68ED0062D5374DAE6904
:100D300046F00106AE61AD6924F0030605F0010539
:100D40000095334D06EB050CDCF80850A607360F6E
:100D500007FA06F825EA0805DFF8B880404503D110
:100D60004FF0000817E044E0DFF8AC80404502D1C6
:100D70004FF001080FE0DFF8A480404502D14FF0AA
:100D8000020808E0DFF89880404502D14FF00308E0
:100D900001E04FF0040808FA06F848EA0508CCF824
:100DA00008804D68D9F80060ED034D4601D5164323
:100DB00000E096432E604D68DAF80060AD035546BA
:100DC00001D5164300E096432E604D68DBF80060C5
:100DD000ED025D4601D5164300E096432E604D6856
:100DE000DEF80060AD02754601D5164300E096437B
:100DF0002E60641C0D682A46E5407FF431AFBDE8E3
:100E0000F88F0000000401400000111000100240A3
:100E10000000014000080140000C014000100140AA
:100E2000001401400AB1016170470904FBE70000AA
:100E30000148806870470000000000200248816877
:100E4000027811448160704700000020074810B507
:100E5000016841F010010160032000F075F80F20D7
:100E600000F006F800F024F8002010BD0020024039
:100E700070B50D4D04464FF47A712878B1FBF0F04F
:100E80000A490968B1FBF0F000F0ECFA48B9102CFF
:100E900007D200222146501E00F036F800206C6078
:100EA00070BD012070BD0000000000200C0000207B
:100EB0000C4808B5816941F001018161816901F047
:100EC00001010091C16941F08051C161C06900F028
:100ED000805000900448416821F0E06141F00071C9
:100EE000416008BD0010024000000140002809DBFD
:100EF00000F01F02012191404009800000F1E02034
:100F0000C0F8001170470000F0B40E4B1B680C468F
:100F1000C3F30223C3F10705042D00D90425191DCD
:100F2000072901D2002300E0DB1E012606FA05F1A5
:100F3000491E214099409E40761E16403143F0BC28
:100F400000F01DBE0CED00E0064900F00702086845
:100F50004FF6FF03184040EA0220034A104308609E
:100F6000704700000CED00E00000FA052DE9F047A5
:100F70000F46050061D0434E306800F00700B842CC
:100F800009D2306820F0070038433060306800F044
:100F90000700B84251D128683B4C810712D5400761
:100FA00003D5606840F4E06060602878000703D5EE
:100FB000606840F4605060606068A96820F0F000EC
:100FC000084360602878C00728D06868012810D0DE
:100FD0002168022810D0890700292EDA616821F0E3
:100FE000030101436160FFF723FF804641F2883926
:100FF0000DE021688903EFE78901EDE7FFF718FFAE
:10100000A0EB0801494502D90320BDE8F0876068DC
:10101000696800F00C00B0EB810FEFD1306800F090
:101020000700B8420BD9306820F007003843306021
:10103000306800F00700B84201D00120E5E72878C9
:10104000400705D56068E96820F4E0600843606007
:101050002878000706D56068296920F4605040EAC6
:10106000C100606000F038F86168084AC1F30311FC
:10107000515CC8400649086006480068FFF7F8FE62
:101080000020C2E70020024000100240041C0008BB
:101090000C0000200400002004480549006849684D
:1010A000044AC1F30221515CC84070470C00002083
:1010B00000100240141C00080448054900684968F3
:1010C000044AC1F3C221515CC84070470C000020A3
:1010D00000100240141C000812A185B00FC98DE851
:1010E0000F0014A0144A006804905168134801F0DE
:1010F0000C03042B10D0082B0ED1C1F38343C9037A
:101100001DF803000AD5516804AAC1F34041515C9F
:101110000A4A5043B0FBF1F005B070470849484314
:10112000FAE7000002030405060708090A0B0C0D84
:101130000E0F1010010200000010024000127A0091
:1011400000093D002DE9F84F040070D02078C04D13
:10115000C00749D06868C0F38100012807D06868DB
:10116000C0F38100022809D16868C00306D5286849
:10117000800339D560680028E7D035E06068B0F5B5
:10118000803F0BD010B1B0F5A02F11D0286820F40B
:1011900080302860286820F4802002E0286840F42D
:1011A00080302860606890B1FFF742FE06460AE092
:1011B000286840F480202860F0E700BFFFF738FE81
:1011C000801B642873D828688003F7D50CE0FFF7EC
:1011D0002FFE064605E000BFFFF72AFE801B6428AD
:1011E000F0D828688003F7D420789A4E80074FF013
:1011F00001094FF0000839D5686810F00C0F07D0CE
:101200006868C0F38100022809D16868C00306D469
:101210002868800714D52069012808D110E02069CA
:10122000B0B1C6F80090FFF703FE074605E00AE1FB
:10123000FFF7FEFDC01B0228C4D828688007F7D539
:101240002868616920F0F80040EAC10028600DE0DC
:10125000C6F80080FFF7ECFD074604E0FFF7E8FD65
:10126000C01B022823D828688007F7D420780007FD
:101270002CD57948A169D9B1C0F80090FFF7D8FD05
:10128000074604E0FFF7D4FDC01B02280FD8686AA8
:101290008007F7D571484FF4FA510068B0FBF1F0C0
:1012A000009000BF0098411E0091FAD20EE080E04D
:1012B000C0F80080FFF7BCFD074604E0FFF7B8FD6B
:1012C000C01B022875D8686A8007F7D420784007C9
:1012D00060D5E8690027C00008D4E86940F0805074
:1012E000E861E869012700F0805000905C480168DF
:1012F000C90513D40168834641F480710160FFF78A
:1013000097FD824606E000BFFFF792FDA0EB0A00C2
:1013100064284ED8DBF80000C005F5D5E068012848
:101320000AD008B1052813D0286A20F001002862ED
:10133000286A20F0040002E0286A40F001002862D8
:10134000E06841F2883B98B1FFF772FD82460BE0FE
:10135000286A40F004002862EEE700BFFFF768FD4E
:10136000A0EB0A0159455AD8286A8007F6D50CE047
:10137000FFF75EFD824605E0FFF75AFDA0EB0A018C
:1013800059454CD8286A8007F6D41FB1E86920F087
:101390008050E861E06988B36968C1F3810102297E
:1013A00044D00228C6F8608004D0FFF741FD04460F
:1013B00038E034E0FFF73CFD074604E0FFF738FD76
:1013C000C01B02282BD828688001F7D4206AB0F50A
:1013D000803F05D16868A16820F400300843686048
:1013E000D4E908010843696821F47411084368606E
:1013F000C6F86090FFF71CFD044606E025E000BF3C
:10140000FFF716FD001B022809D828688001F7D5D0
:101410001BE000BFFFF70CFD001B022802D90320D0
:10142000BDE8F88F28688001F4D40EE00128F7D0D9
:101430006868226A00F48031914204D1616A00F444
:101440007010884201D00120EAE70020E8E70000A0
:101450000010024000004242800442420C00002082
:101460000070004010B5401EB0F1807F01D3012014
:1014700010BD4FF0E02460610F21601700F07FFB8A
:101480000020A06107202061002010BD7047704738
:10149000F8B5026804461068D168536910F00F0F60
:1014A0004FF0000554D003F0010601F49077374364
:1014B0005FD0C20705D0CA0503D5226C42F00102F5
:1014C0002264420705D5DA0703D0226C42F00202FB
:1014D0002264820705D5DA0703D0226C42F00402A9
:1014E0002264020707D501F02002324303D0226CA8
:1014F00042F008022264226C002A35D0800604D50E
:10150000880602D5204600F04AFA20684069216C1E
:10151000C0F3801001F008010143204625D000F0FF
:1015200026FA2068416949061BD5416921F040012E
:101530004161A06BA8B158494163A06BFFF724FB40
:10154000002811D0A06B416B01B0BDE8F040084706
:1015500083060ED58B060CD52046BDE8F84000F07A
:101560001EBA2046FFF793FFF8BDFFF790FF2564F2
:10157000F8BD266B2023012E52D1C60650D5CE06CB
:101580004ED5106850680090506940062AD5A16B6E
:10159000086840680004000CEAD0A68D8642E7D9AE
:1015A000E0858869202818D0D06820F48070D06049
:1015B0002068416921F0010141612068416921F001
:1015C0004001416184F83E3025632068C16821F004
:1015D0001001C160A06BFFF7B3FAA08DE18D401A36
:1015E00081B219E0A08DE18D401A81B2E08D002812
:1015F000BED00029BCD0D06820F49070D0602068A4
:10160000426922F00102426184F83E30256320687D
:10161000C26822F01002C2602046FFF737FFF8BD13
:1016200005062BD50D0629D594F83D002128F6D1C5
:10163000A068B0F5805F01D12069B0B1206A411C7B
:101640002162216800784860E08C401E0004000C94
:10165000E084E4D12068C16821F08001C160206885
:10166000C16841F04001C160F8BD206A0088C0F344
:1016700008005060206A801C2062E5E74006F3D530
:101680004806F1D5D168204621F04001D16084F8A8
:101690003D3000F0D8F8F8BD5F19000870B50400BF
:1016A00004D094F83D00002510B106E0012070BD83
:1016B00084F83C50204600F023F8242084F83D00B4
:1016C0002068C16821F40051C160204600F0C2F9D1
:1016D0002068016921F4904101612068416921F08D
:1016E0002A0141612068C16841F40051C16025644C
:1016F000202084F83D0084F83E00002070BD0000EA
:1017000030B585B0002400940194029403940068DD
:101710001B49884232D11B48816941F48041816173
:10172000816901F480410491816941F0080181617E
:101730008069154D00F008000490402000900220C0
:1017400001900320039069462846FFF77BFA80202A
:10175000CDE90004694628460294FFF773FA0B4866
:10176000416841F0E06141F004014160002211460E
:101770002520FFF7C9FB2520FFF7B8FB05B030BDDA
:101780000038014000100240000C01400000014000
:10179000704700002DE9F843044690F83D001F46CD
:1017A00016460D4620284CD1C5B1BEB194F83C0078
:1017B000012846D0012084F83C004FF00008C4F80E
:1017C0004080212084F83D00FFF732FBA68481464B
:1017D000E684A068B0F5805F03D004E00120BDE896
:1017E000F883206928B12E465FF0000584F83C801C
:1017F0000EE00026FAE78021204600F087F9A0B924
:10180000AEB116F8010B21684860E08C401EE08400
:10181000E08C4B464FF0000200970028EBD14FF0D0
:101820004001204600F072F930B10320D7E735F8C7
:10183000020BC0F30800E6E7202084F83D000020FA
:10184000CDE70220CBE77047FEE7000070B586B019
:10185000002418480094019402940394816941F093
:1018600010018161816901F010010491816941F0E9
:1018700004018161816901F004010491816941F0F1
:101880000801816180690C4E00F008004FF400559A
:101890000490002229463046FFF7C4FA0120009543
:1018A000CDE901040220039069463046FFF7CAF9EA
:1018B00006B070BD00100240001001400C4810B589
:1018C0000A4901604FF416514160002181600C22E9
:1018D000C160C0E904128161C161FFF7DFFE002829
:1018E00003D0BDE81040FFF729B910BD0038014012
:1018F0001C000020FEE7FEE770477047FFF79EBA26
:1019000030B58FB028216846FEF772FC14210AA872
:10191000FEF76EFC02250120049000951020059032
:1019200000244FF4E010CDE9084007956846FFF722
:1019300009FC08B172B6FEE70F20CDE90A054FF4A5
:101940008060CDE90C4001210AA80E94FFF70EFB40
:10195000002801D072B6FEE70FB030BD704710B559
:10196000406A0021C185C184FFF791FD10BD016867
:10197000CA6822F49072CA6001684A6922F00102C2
:101980004A61016B012904D10168CA6822F0100282
:10199000CA60202180F83E1000210163704708B51D
:1019A00090F83E10222901D0022008BD82684FF431
:1019B00080539A4201D1016921B1816A9A421BD0B8
:1019C0004AB10AE00268816A5268C2F308020A80DA
:1019D000816A891C08E0026972B10268526802F0EB
:1019E0007F020A70816A491C8162C18D491E090407
:1019F000090CC18503D019E002685268F1E701685B
:101A0000CA6822F02002CA600168CA6822F48072A3
:101A1000CA6001684A6922F001024A61202180F807
:101A20003E10016B012903D0FFF7B2FE002008BD74
:101A3000002101630168CA6822F01002CA600168CF
:101A40000A68D20602D50A6849680091818DFFF7BD
:101A50001DFDEBE770B5044600680169E26821F4FA
:101A60004051114301612169A0680843616908433D
:101A70002168CA6841F20C639A430243CA60206835
:101A80004169A26921F44071114341611E492068F6
:101A9000884202D1FFF710FB01E0FFF7FDFA00EBEF
:101AA000C00101EB0012606864218000B2FBF0F31A
:101AB000B3FBF1F36FF018067343B2FBF0F5B2FB22
:101AC000F0F605EB8305322303EB0515B5FBF1F5C5
:101AD000B6FBF1F605F0F00505EB0615B2FBF0F6E6
:101AE000B2FBF0F0B0FBF1F06FF01802504306EBE0
:101AF000800003EB0010B0FBF1F0216800F00F0054
:101B00002844886070BD0000003801402DE9F04194
:101B1000984617460E460446069D1DE0681C1BD0DD
:101B20002DB1FFF785F9A0EB0800A84214D9206871
:101B3000C16821F4D071C1602068416921F00101C0
:101B40004161202084F83D0084F83E00002084F8A4
:101B50003C000320BDE8F0812068006836EA000000
:101B600004D00020B842D9D00020F3E70120F9E7E3
:101B70000148FFF78DBC00001C000020FEE70907AC
:101B8000090E002804DB00F1E02080F80014704703
:101B900000F00F0000F1E02080F8141D70470000F5
:101BA00013B50A23012269460248FFF7F3FD0098A6
:101BB0001CBD00001C000020FFF748F9FFF7A0FE45
:101BC000FFF744FEFFF77AFE0C4C4FF400564FF43B
:101BD000FA750BA0FEF700FB012231462046FFF705
:101BE00021F92846FFF71CF8002231462046FFF76E
:101BF00019F92846FFF714F8EBE700000010014040
:101C00003100000000000000000000000102030499
:101C10000607080900000000010203043A7474007A
:101C20003A7474003A747400481C000800000020E4
:101C30001C00000028010008641C00081C00002093
:101C4000A40700004401000801000000100000008B
:101C5000000000000024F40000000000000000006C
:041C60000000000080
:04000005080000ED02
:00000001FF
